{
  "_format": "hh-sol-artifact-1",
  "contractName": "NFTCertificate",
  "sourceName": "contracts/NFTCertificate.sol",
  "abi": [
    {
      "inputs": [],
      "stateMutability": "nonpayable",
      "type": "constructor"
    },
    {
      "inputs": [
        {
          "internalType": "address",
          "name": "sender",
          "type": "address"
        },
        {
          "internalType": "uint256",
          "name": "tokenId",
          "type": "uint256"
        },
        {
          "internalType": "address",
          "name": "owner",
          "type": "address"
        }
      ],
      "name": "ERC721IncorrectOwner",
      "type": "error"
    },
    {
      "inputs": [
        {
          "internalType": "address",
          "name": "operator",
          "type": "address"
        },
        {
          "internalType": "uint256",
          "name": "tokenId",
          "type": "uint256"
        }
      ],
      "name": "ERC721InsufficientApproval",
      "type": "error"
    },
    {
      "inputs": [
        {
          "internalType": "address",
          "name": "approver",
          "type": "address"
        }
      ],
      "name": "ERC721InvalidApprover",
      "type": "error"
    },
    {
      "inputs": [
        {
          "internalType": "address",
          "name": "operator",
          "type": "address"
        }
      ],
      "name": "ERC721InvalidOperator",
      "type": "error"
    },
    {
      "inputs": [
        {
          "internalType": "address",
          "name": "owner",
          "type": "address"
        }
      ],
      "name": "ERC721InvalidOwner",
      "type": "error"
    },
    {
      "inputs": [
        {
          "internalType": "address",
          "name": "receiver",
          "type": "address"
        }
      ],
      "name": "ERC721InvalidReceiver",
      "type": "error"
    },
    {
      "inputs": [
        {
          "internalType": "address",
          "name": "sender",
          "type": "address"
        }
      ],
      "name": "ERC721InvalidSender",
      "type": "error"
    },
    {
      "inputs": [
        {
          "internalType": "uint256",
          "name": "tokenId",
          "type": "uint256"
        }
      ],
      "name": "ERC721NonexistentToken",
      "type": "error"
    },
    {
      "inputs": [
        {
          "internalType": "address",
          "name": "owner",
          "type": "address"
        }
      ],
      "name": "OwnableInvalidOwner",
      "type": "error"
    },
    {
      "inputs": [
        {
          "internalType": "address",
          "name": "account",
          "type": "address"
        }
      ],
      "name": "OwnableUnauthorizedAccount",
      "type": "error"
    },
    {
      "anonymous": false,
      "inputs": [
        {
          "indexed": true,
          "internalType": "address",
          "name": "owner",
          "type": "address"
        },
        {
          "indexed": true,
          "internalType": "address",
          "name": "approved",
          "type": "address"
        },
        {
          "indexed": true,
          "internalType": "uint256",
          "name": "tokenId",
          "type": "uint256"
        }
      ],
      "name": "Approval",
      "type": "event"
    },
    {
      "anonymous": false,
      "inputs": [
        {
          "indexed": true,
          "internalType": "address",
          "name": "owner",
          "type": "address"
        },
        {
          "indexed": true,
          "internalType": "address",
          "name": "operator",
          "type": "address"
        },
        {
          "indexed": false,
          "internalType": "bool",
          "name": "approved",
          "type": "bool"
        }
      ],
      "name": "ApprovalForAll",
      "type": "event"
    },
    {
      "anonymous": false,
      "inputs": [
        {
          "indexed": true,
          "internalType": "address",
          "name": "recipient",
          "type": "address"
        },
        {
          "indexed": true,
          "internalType": "uint256",
          "name": "tokenId",
          "type": "uint256"
        },
        {
          "indexed": false,
          "internalType": "enum NFTCertificate.Level",
          "name": "level",
          "type": "uint8"
        },
        {
          "indexed": false,
          "internalType": "string",
          "name": "name",
          "type": "string"
        }
      ],
      "name": "CertificateIssued",
      "type": "event"
    },
    {
      "anonymous": false,
      "inputs": [
        {
          "indexed": true,
          "internalType": "address",
          "name": "previousOwner",
          "type": "address"
        },
        {
          "indexed": true,
          "internalType": "address",
          "name": "newOwner",
          "type": "address"
        }
      ],
      "name": "OwnershipTransferred",
      "type": "event"
    },
    {
      "anonymous": false,
      "inputs": [
        {
          "indexed": true,
          "internalType": "address",
          "name": "from",
          "type": "address"
        },
        {
          "indexed": true,
          "internalType": "address",
          "name": "to",
          "type": "address"
        },
        {
          "indexed": true,
          "internalType": "uint256",
          "name": "tokenId",
          "type": "uint256"
        }
      ],
      "name": "Transfer",
      "type": "event"
    },
    {
      "inputs": [
        {
          "internalType": "address",
          "name": "to",
          "type": "address"
        },
        {
          "internalType": "uint256",
          "name": "tokenId",
          "type": "uint256"
        }
      ],
      "name": "approve",
      "outputs": [],
      "stateMutability": "nonpayable",
      "type": "function"
    },
    {
      "inputs": [
        {
          "internalType": "address",
          "name": "owner",
          "type": "address"
        }
      ],
      "name": "balanceOf",
      "outputs": [
        {
          "internalType": "uint256",
          "name": "",
          "type": "uint256"
        }
      ],
      "stateMutability": "view",
      "type": "function"
    },
    {
      "inputs": [
        {
          "internalType": "address[]",
          "name": "recipients",
          "type": "address[]"
        },
        {
          "internalType": "string",
          "name": "name",
          "type": "string"
        },
        {
          "internalType": "enum NFTCertificate.Level",
          "name": "level",
          "type": "uint8"
        },
        {
          "internalType": "string[]",
          "name": "skills",
          "type": "string[]"
        },
        {
          "internalType": "string",
          "name": "achievementType",
          "type": "string"
        },
        {
          "internalType": "string",
          "name": "baseURI",
          "type": "string"
        }
      ],
      "name": "batchIssueCertificates",
      "outputs": [],
      "stateMutability": "nonpayable",
      "type": "function"
    },
    {
      "inputs": [
        {
          "internalType": "uint256",
          "name": "",
          "type": "uint256"
        }
      ],
      "name": "certificates",
      "outputs": [
        {
          "internalType": "string",
          "name": "name",
          "type": "string"
        },
        {
          "internalType": "enum NFTCertificate.Level",
          "name": "level",
          "type": "uint8"
        },
        {
          "internalType": "uint256",
          "name": "issuedAt",
          "type": "uint256"
        },
        {
          "internalType": "string",
          "name": "achievementType",
          "type": "string"
        },
        {
          "internalType": "string",
          "name": "uri",
          "type": "string"
        }
      ],
      "stateMutability": "view",
      "type": "function"
    },
    {
      "inputs": [
        {
          "internalType": "uint256",
          "name": "tokenId",
          "type": "uint256"
        }
      ],
      "name": "getApproved",
      "outputs": [
        {
          "internalType": "address",
          "name": "",
          "type": "address"
        }
      ],
      "stateMutability": "view",
      "type": "function"
    },
    {
      "inputs": [
        {
          "internalType": "uint256",
          "name": "tokenId",
          "type": "uint256"
        }
      ],
      "name": "getCertificate",
      "outputs": [
        {
          "internalType": "string",
          "name": "name",
          "type": "string"
        },
        {
          "internalType": "enum NFTCertificate.Level",
          "name": "level",
          "type": "uint8"
        },
        {
          "internalType": "uint256",
          "name": "issuedAt",
          "type": "uint256"
        },
        {
          "internalType": "string[]",
          "name": "skills",
          "type": "string[]"
        },
        {
          "internalType": "string",
          "name": "achievementType",
          "type": "string"
        }
      ],
      "stateMutability": "view",
      "type": "function"
    },
    {
      "inputs": [
        {
          "internalType": "address",
          "name": "owner",
          "type": "address"
        }
      ],
      "name": "getCertificates",
      "outputs": [
        {
          "internalType": "uint256[]",
          "name": "",
          "type": "uint256[]"
        }
      ],
      "stateMutability": "view",
      "type": "function"
    },
    {
      "inputs": [
        {
          "internalType": "address",
          "name": "owner",
          "type": "address"
        }
      ],
      "name": "getHighestLevel",
      "outputs": [
        {
          "internalType": "enum NFTCertificate.Level",
          "name": "",
          "type": "uint8"
        }
      ],
      "stateMutability": "view",
      "type": "function"
    },
    {
      "inputs": [
        {
          "internalType": "address",
          "name": "",
          "type": "address"
        },
        {
          "internalType": "enum NFTCertificate.Level",
          "name": "",
          "type": "uint8"
        }
      ],
      "name": "hasLevel",
      "outputs": [
        {
          "internalType": "bool",
          "name": "",
          "type": "bool"
        }
      ],
      "stateMutability": "view",
      "type": "function"
    },
    {
      "inputs": [
        {
          "internalType": "address",
          "name": "owner",
          "type": "address"
        },
        {
          "internalType": "address",
          "name": "operator",
          "type": "address"
        }
      ],
      "name": "isApprovedForAll",
      "outputs": [
        {
          "internalType": "bool",
          "name": "",
          "type": "bool"
        }
      ],
      "stateMutability": "view",
      "type": "function"
    },
    {
      "inputs": [
        {
          "internalType": "address",
          "name": "recipient",
          "type": "address"
        },
        {
          "internalType": "string",
          "name": "name",
          "type": "string"
        },
        {
          "internalType": "enum NFTCertificate.Level",
          "name": "level",
          "type": "uint8"
        },
        {
          "internalType": "string[]",
          "name": "skills",
          "type": "string[]"
        },
        {
          "internalType": "string",
          "name": "achievementType",
          "type": "string"
        },
        {
          "internalType": "string",
          "name": "uri",
          "type": "string"
        }
      ],
      "name": "issueCertificate",
      "outputs": [
        {
          "internalType": "uint256",
          "name": "",
          "type": "uint256"
        }
      ],
      "stateMutability": "nonpayable",
      "type": "function"
    },
    {
      "inputs": [],
      "name": "name",
      "outputs": [
        {
          "internalType": "string",
          "name": "",
          "type": "string"
        }
      ],
      "stateMutability": "view",
      "type": "function"
    },
    {
      "inputs": [],
      "name": "owner",
      "outputs": [
        {
          "internalType": "address",
          "name": "",
          "type": "address"
        }
      ],
      "stateMutability": "view",
      "type": "function"
    },
    {
      "inputs": [
        {
          "internalType": "uint256",
          "name": "tokenId",
          "type": "uint256"
        }
      ],
      "name": "ownerOf",
      "outputs": [
        {
          "internalType": "address",
          "name": "",
          "type": "address"
        }
      ],
      "stateMutability": "view",
      "type": "function"
    },
    {
      "inputs": [],
      "name": "renounceOwnership",
      "outputs": [],
      "stateMutability": "nonpayable",
      "type": "function"
    },
    {
      "inputs": [
        {
          "internalType": "address",
          "name": "from",
          "type": "address"
        },
        {
          "internalType": "address",
          "name": "to",
          "type": "address"
        },
        {
          "internalType": "uint256",
          "name": "tokenId",
          "type": "uint256"
        }
      ],
      "name": "safeTransferFrom",
      "outputs": [],
      "stateMutability": "nonpayable",
      "type": "function"
    },
    {
      "inputs": [
        {
          "internalType": "address",
          "name": "from",
          "type": "address"
        },
        {
          "internalType": "address",
          "name": "to",
          "type": "address"
        },
        {
          "internalType": "uint256",
          "name": "tokenId",
          "type": "uint256"
        },
        {
          "internalType": "bytes",
          "name": "data",
          "type": "bytes"
        }
      ],
      "name": "safeTransferFrom",
      "outputs": [],
      "stateMutability": "nonpayable",
      "type": "function"
    },
    {
      "inputs": [
        {
          "internalType": "address",
          "name": "operator",
          "type": "address"
        },
        {
          "internalType": "bool",
          "name": "approved",
          "type": "bool"
        }
      ],
      "name": "setApprovalForAll",
      "outputs": [],
      "stateMutability": "nonpayable",
      "type": "function"
    },
    {
      "inputs": [
        {
          "internalType": "bytes4",
          "name": "interfaceId",
          "type": "bytes4"
        }
      ],
      "name": "supportsInterface",
      "outputs": [
        {
          "internalType": "bool",
          "name": "",
          "type": "bool"
        }
      ],
      "stateMutability": "view",
      "type": "function"
    },
    {
      "inputs": [],
      "name": "symbol",
      "outputs": [
        {
          "internalType": "string",
          "name": "",
          "type": "string"
        }
      ],
      "stateMutability": "view",
      "type": "function"
    },
    {
      "inputs": [
        {
          "internalType": "uint256",
          "name": "tokenId",
          "type": "uint256"
        }
      ],
      "name": "tokenURI",
      "outputs": [
        {
          "internalType": "string",
          "name": "",
          "type": "string"
        }
      ],
      "stateMutability": "view",
      "type": "function"
    },
    {
      "inputs": [
        {
          "internalType": "address",
          "name": "from",
          "type": "address"
        },
        {
          "internalType": "address",
          "name": "to",
          "type": "address"
        },
        {
          "internalType": "uint256",
          "name": "tokenId",
          "type": "uint256"
        }
      ],
      "name": "transferFrom",
      "outputs": [],
      "stateMutability": "nonpayable",
      "type": "function"
    },
    {
      "inputs": [
        {
          "internalType": "address",
          "name": "newOwner",
          "type": "address"
        }
      ],
      "name": "transferOwnership",
      "outputs": [],
      "stateMutability": "nonpayable",
      "type": "function"
    }
  ],
  "bytecode": "0x60806040523480156200001157600080fd5b50336040518060400160405280601781526020017f506f6c794275696c6465722043657274696669636174650000000000000000008152506040518060400160405280600381526020016250424360e81b8152508160009081620000769190620001c0565b506001620000858282620001c0565b5050506001600160a01b038116620000b757604051631e4fbdf760e01b81526000600482015260240160405180910390fd5b620000c281620000c9565b506200028c565b600680546001600160a01b038381166001600160a01b0319831681179093556040519116919082907f8be0079c531659141344cd1fd0a4f28419497f9722a3daafe3b4186f6b6457e090600090a35050565b634e487b7160e01b600052604160045260246000fd5b600181811c908216806200014657607f821691505b6020821081036200016757634e487b7160e01b600052602260045260246000fd5b50919050565b601f821115620001bb57600081815260208120601f850160051c81016020861015620001965750805b601f850160051c820191505b81811015620001b757828155600101620001a2565b5050505b505050565b81516001600160401b03811115620001dc57620001dc6200011b565b620001f481620001ed845462000131565b846200016d565b602080601f8311600181146200022c5760008415620002135750858301515b600019600386901b1c1916600185901b178555620001b7565b600085815260208120601f198616915b828110156200025d578886015182559484019460019091019084016200023c565b50858210156200027c5787850151600019600388901b60f8161c191681555b5050505050600190811b01905550565b61259d806200029c6000396000f3fe608060405234801561001057600080fd5b506004361061014d5760003560e01c8063663b3e22116100c3578063a22cb4651161007c578063a22cb46514610306578063b88d4fde14610319578063c87b56dd1461032c578063e985e9c51461033f578063f1c49c6214610352578063f2fde38b1461037257600080fd5b8063663b3e221461028e57806370a08231146102b2578063715018a6146102c5578063860f22e6146102cd5780638da5cb5b146102ed57806395d89b41146102fe57600080fd5b8063263dc2f011610115578063263dc2f0146101e257806342842e0e1461021057806351640fee146102235780635190b30e146102475780635e4c98771461025a5780636352211e1461027b57600080fd5b806301ffc9a71461015257806306fdde031461017a578063081812fc1461018f578063095ea7b3146101ba57806323b872dd146101cf575b600080fd5b610165610160366004611c32565b610385565b60405190151581526020015b60405180910390f35b6101826103d7565b6040516101719190611ca6565b6101a261019d366004611cb9565b610469565b6040516001600160a01b039091168152602001610171565b6101cd6101c8366004611cf7565b610492565b005b6101cd6101dd366004611d23565b6104a1565b6101656101f0366004611d73565b600960209081526000928352604080842090915290825290205460ff1681565b6101cd61021e366004611d23565b610531565b610236610231366004611cb9565b610551565b604051610171959493929190611de0565b6101cd610255366004612051565b6108c6565b61026d610268366004612132565b610b1c565b604051908152602001610171565b6101a2610289366004611cb9565b610d22565b6102a161029c366004611cb9565b610d2d565b604051610171959493929190612171565b61026d6102c03660046121c9565b610efb565b6101cd610f43565b6102e06102db3660046121c9565b610f57565b60405161017191906121e6565b6006546001600160a01b03166101a2565b61018261109f565b6101cd6103143660046121f4565b6110ae565b6101cd610327366004612232565b6110b9565b61018261033a366004611cb9565b6110d1565b61016561034d3660046122b2565b6111cc565b6103656103603660046121c9565b6111fa565b60405161017191906122e0565b6101cd6103803660046121c9565b61131e565b60006001600160e01b031982166380ac58cd60e01b14806103b657506001600160e01b03198216635b5e139f60e01b145b806103d157506301ffc9a760e01b6001600160e01b03198316145b92915050565b6060600080546103e690612324565b80601f016020809104026020016040519081016040528092919081815260200182805461041290612324565b801561045f5780601f106104345761010080835404028352916020019161045f565b820191906000526020600020905b81548152906001019060200180831161044257829003601f168201915b5050505050905090565b60006104748261135c565b506000828152600460205260409020546001600160a01b03166103d1565b61049d828233611395565b5050565b6001600160a01b0382166104d057604051633250574960e11b8152600060048201526024015b60405180910390fd5b60006104dd8383336113a2565b9050836001600160a01b0316816001600160a01b03161461052b576040516364283d7b60e01b81526001600160a01b03808616600483015260248201849052821660448201526064016104c7565b50505050565b61054c838383604051806020016040528060008152506110b9565b505050565b606060008082808261056287610d22565b6001600160a01b0316036105b85760405162461bcd60e51b815260206004820152601a60248201527f436572746966696361746520646f6573206e6f7420657869737400000000000060448201526064016104c7565b600086815260086020526040808220815160c081019092528054829082906105df90612324565b80601f016020809104026020016040519081016040528092919081815260200182805461060b90612324565b80156106585780601f1061062d57610100808354040283529160200191610658565b820191906000526020600020905b81548152906001019060200180831161063b57829003601f168201915b5050509183525050600182015460209091019060ff16600481111561067f5761067f611da8565b600481111561069057610690611da8565b81526020016002820154815260200160038201805480602002602001604051908101604052809291908181526020016000905b8282101561076f5783829060005260206000200180546106e290612324565b80601f016020809104026020016040519081016040528092919081815260200182805461070e90612324565b801561075b5780601f106107305761010080835404028352916020019161075b565b820191906000526020600020905b81548152906001019060200180831161073e57829003601f168201915b5050505050815260200190600101906106c3565b50505050815260200160048201805461078790612324565b80601f01602080910402602001604051908101604052809291908181526020018280546107b390612324565b80156108005780601f106107d557610100808354040283529160200191610800565b820191906000526020600020905b8154815290600101906020018083116107e357829003601f168201915b5050505050815260200160058201805461081990612324565b80601f016020809104026020016040519081016040528092919081815260200182805461084590612324565b80156108925780601f1061086757610100808354040283529160200191610892565b820191906000526020600020905b81548152906001019060200180831161087557829003601f168201915b5050509190925250508151602083015160408401516060850151608090950151929c919b5099509297509550909350505050565b6108ce61144b565b60005b8651811015610b1357600780549060006108ea8361235e565b91905055506000600754905061091988838151811061090b5761090b612385565b602002602001015182611478565b6040518060c0016040528088815260200187600481111561093c5761093c611da8565b81526020014281526020018681526020018581526020018461095d84611492565b60405160200161096e92919061239b565b60408051601f1981840301815291815291526000838152600860205220815181906109999082612410565b50602082015160018083018054909160ff19909116908360048111156109c1576109c1611da8565b021790555060408201516002820155606082015180516109eb916003840191602090910190611b5f565b5060808201516004820190610a009082612410565b5060a08201516005820190610a159082612410565b509050506001600960008a8581518110610a3157610a31612385565b60200260200101516001600160a01b03166001600160a01b031681526020019081526020016000206000886004811115610a6d57610a6d611da8565b6004811115610a7e57610a7e611da8565b815260200190815260200160002060006101000a81548160ff02191690831515021790555080888381518110610ab657610ab6612385565b60200260200101516001600160a01b03167f8200fed4effd729c00e244ac670f6351a86e5f1e99029d7729a5532bc3ff3982888a604051610af89291906124d0565b60405180910390a35080610b0b8161235e565b9150506108d1565b50505050505050565b6000610b2661144b565b6001600160a01b038716610b705760405162461bcd60e51b8152602060048201526011602482015270125b9d985b1a59081c9958da5c1a595b9d607a1b60448201526064016104c7565b60078054906000610b808361235e565b9091555050600754610b928882611478565b6040518060c00160405280888152602001876004811115610bb557610bb5611da8565b8152426020808301919091526040808301899052606083018890526080909201869052600084815260089091522081518190610bf19082612410565b50602082015160018083018054909160ff1990911690836004811115610c1957610c19611da8565b02179055506040820151600282015560608201518051610c43916003840191602090910190611b5f565b5060808201516004820190610c589082612410565b5060a08201516005820190610c6d9082612410565b5050506001600160a01b0388166000908152600960205260408120600191886004811115610c9d57610c9d611da8565b6004811115610cae57610cae611da8565b815260200190815260200160002060006101000a81548160ff02191690831515021790555080886001600160a01b03167f8200fed4effd729c00e244ac670f6351a86e5f1e99029d7729a5532bc3ff3982888a604051610d0f9291906124d0565b60405180910390a3979650505050505050565b60006103d18261135c565b600860205260009081526040902080548190610d4890612324565b80601f0160208091040260200160405190810160405280929190818152602001828054610d7490612324565b8015610dc15780601f10610d9657610100808354040283529160200191610dc1565b820191906000526020600020905b815481529060010190602001808311610da457829003601f168201915b5050505060018301546002840154600485018054949560ff9093169491935090610dea90612324565b80601f0160208091040260200160405190810160405280929190818152602001828054610e1690612324565b8015610e635780601f10610e3857610100808354040283529160200191610e63565b820191906000526020600020905b815481529060010190602001808311610e4657829003601f168201915b505050505090806005018054610e7890612324565b80601f0160208091040260200160405190810160405280929190818152602001828054610ea490612324565b8015610ef15780601f10610ec657610100808354040283529160200191610ef1565b820191906000526020600020905b815481529060010190602001808311610ed457829003601f168201915b5050505050905085565b60006001600160a01b038216610f27576040516322718ad960e21b8152600060048201526024016104c7565b506001600160a01b031660009081526003602052604090205490565b610f4b61144b565b610f556000611525565b565b6001600160a01b03811660009081526009602090815260408083206004845290915281205460ff1615610f8c57506004919050565b6001600160a01b03821660009081526009602090815260408083206003845290915290205460ff1615610fc157506003919050565b6001600160a01b03821660009081526009602090815260408083206002845290915290205460ff1615610ff657506002919050565b6001600160a01b03821660009081526009602090815260408083206001845290915290205460ff161561102b57506001919050565b6001600160a01b038216600090815260096020908152604080832083805290915290205460ff161561105f57506000919050565b60405162461bcd60e51b8152602060048201526015602482015274139bc818d95c9d1a599a58d85d195cc8199bdd5b99605a1b60448201526064016104c7565b6060600180546103e690612324565b61049d338383611577565b6110c48484846104a1565b61052b3385858585611616565b606060006110de83610d22565b6001600160a01b03160361112b5760405162461bcd60e51b8152602060048201526014602482015273151bdad95b88191bd95cc81b9bdd08195e1a5cdd60621b60448201526064016104c7565b6000828152600860205260409020600501805461114790612324565b80601f016020809104026020016040519081016040528092919081815260200182805461117390612324565b80156111c05780601f10611195576101008083540402835291602001916111c0565b820191906000526020600020905b8154815290600101906020018083116111a357829003601f168201915b50505050509050919050565b6001600160a01b03918216600090815260056020908152604080832093909416825291909152205460ff1690565b6060600061120783610efb565b905060008167ffffffffffffffff81111561122457611224611e7a565b60405190808252806020026020018201604052801561124d578160200160208202803683370190505b509050600060015b6007548111611314576040516331a9108f60e11b8152600481018290523090636352211e90602401602060405180830381865afa9250505080156112b6575060408051601f3d908101601f191682019092526112b3918101906124f0565b60015b1561130257866001600160a01b0316816001600160a01b03160361130057818484815181106112e7576112e7612385565b6020908102919091010152826112fc8161235e565b9350505b505b8061130c8161235e565b915050611255565b5090949350505050565b61132661144b565b6001600160a01b03811661135057604051631e4fbdf760e01b8152600060048201526024016104c7565b61135981611525565b50565b6000818152600260205260408120546001600160a01b0316806103d157604051637e27328960e01b8152600481018490526024016104c7565b61054c8383836001611741565b6000828152600260205260408120546001600160a01b03168015806113ce57506001600160a01b038516155b6114375760405162461bcd60e51b815260206004820152603460248201527f4365727469666963617465732061726520736f756c626f756e6420616e642063604482015273185b9b9bdd081899481d1c985b9cd9995c9c995960621b60648201526084016104c7565b611442858585611847565b95945050505050565b6006546001600160a01b03163314610f555760405163118cdaa760e01b81523360048201526024016104c7565b61049d828260405180602001604052806000815250611940565b6060600061149f83611958565b600101905060008167ffffffffffffffff8111156114bf576114bf611e7a565b6040519080825280601f01601f1916602001820160405280156114e9576020820181803683370190505b5090508181016020015b600019016f181899199a1a9b1b9c1cb0b131b232b360811b600a86061a8153600a85049450846114f357509392505050565b600680546001600160a01b038381166001600160a01b0319831681179093556040519116919082907f8be0079c531659141344cd1fd0a4f28419497f9722a3daafe3b4186f6b6457e090600090a35050565b6001600160a01b0382166115a957604051630b61174360e31b81526001600160a01b03831660048201526024016104c7565b6001600160a01b03838116600081815260056020908152604080832094871680845294825291829020805460ff191686151590811790915591519182527f17307eab39ab6107e8899845ad3d59bd9653f200f220920489ca2b5937696c31910160405180910390a3505050565b6001600160a01b0383163b1561173a57604051630a85bd0160e11b81526001600160a01b0384169063150b7a029061165890889088908790879060040161250d565b6020604051808303816000875af1925050508015611693575060408051601f3d908101601f191682019092526116909181019061254a565b60015b6116fc573d8080156116c1576040519150601f19603f3d011682016040523d82523d6000602084013e6116c6565b606091505b5080516000036116f457604051633250574960e11b81526001600160a01b03851660048201526024016104c7565b805160208201fd5b6001600160e01b03198116630a85bd0160e11b1461173857604051633250574960e11b81526001600160a01b03851660048201526024016104c7565b505b5050505050565b808061175557506001600160a01b03821615155b156118175760006117658461135c565b90506001600160a01b038316158015906117915750826001600160a01b0316816001600160a01b031614155b80156117a457506117a281846111cc565b155b156117cd5760405163a9fbf51f60e01b81526001600160a01b03841660048201526024016104c7565b81156118155783856001600160a01b0316826001600160a01b03167f8c5be1e5ebec7d5bd14f71427d1e84f3dd0314c0f7b2291e5b200ac8c7c3b92560405160405180910390a45b505b5050600090815260046020526040902080546001600160a01b0319166001600160a01b0392909216919091179055565b6000828152600260205260408120546001600160a01b039081169083161561187457611874818486611a30565b6001600160a01b038116156118b257611891600085600080611741565b6001600160a01b038116600090815260036020526040902080546000190190555b6001600160a01b038516156118e1576001600160a01b0385166000908152600360205260409020805460010190555b60008481526002602052604080822080546001600160a01b0319166001600160a01b0389811691821790925591518793918516917fddf252ad1be2c89b69c2b068fc378daa952ba7f163c4a11628f55a4df523b3ef91a4949350505050565b61194a8383611a94565b61054c336000858585611616565b60008072184f03e93ff9f4daa797ed6e38ed64bf6a1f0160401b83106119975772184f03e93ff9f4daa797ed6e38ed64bf6a1f0160401b830492506040015b6d04ee2d6d415b85acef810000000083106119c3576d04ee2d6d415b85acef8100000000830492506020015b662386f26fc1000083106119e157662386f26fc10000830492506010015b6305f5e10083106119f9576305f5e100830492506008015b6127108310611a0d57612710830492506004015b60648310611a1f576064830492506002015b600a83106103d15760010192915050565b611a3b838383611af9565b61054c576001600160a01b038316611a6957604051637e27328960e01b8152600481018290526024016104c7565b60405163177e802f60e01b81526001600160a01b0383166004820152602481018290526044016104c7565b6001600160a01b038216611abe57604051633250574960e11b8152600060048201526024016104c7565b6000611acc838360006113a2565b90506001600160a01b0381161561054c576040516339e3563760e11b8152600060048201526024016104c7565b60006001600160a01b03831615801590611b575750826001600160a01b0316846001600160a01b03161480611b335750611b3384846111cc565b80611b5757506000828152600460205260409020546001600160a01b038481169116145b949350505050565b828054828255906000526020600020908101928215611ba5579160200282015b82811115611ba55782518290611b959082612410565b5091602001919060010190611b7f565b50611bb1929150611bb5565b5090565b80821115611bb1576000611bc98282611bd2565b50600101611bb5565b508054611bde90612324565b6000825580601f10611bee575050565b601f01602090049060005260206000209081019061135991905b80821115611bb15760008155600101611c08565b6001600160e01b03198116811461135957600080fd5b600060208284031215611c4457600080fd5b8135611c4f81611c1c565b9392505050565b60005b83811015611c71578181015183820152602001611c59565b50506000910152565b60008151808452611c92816020860160208601611c56565b601f01601f19169290920160200192915050565b602081526000611c4f6020830184611c7a565b600060208284031215611ccb57600080fd5b5035919050565b6001600160a01b038116811461135957600080fd5b8035611cf281611cd2565b919050565b60008060408385031215611d0a57600080fd5b8235611d1581611cd2565b946020939093013593505050565b600080600060608486031215611d3857600080fd5b8335611d4381611cd2565b92506020840135611d5381611cd2565b929592945050506040919091013590565b803560058110611cf257600080fd5b60008060408385031215611d8657600080fd5b8235611d9181611cd2565b9150611d9f60208401611d64565b90509250929050565b634e487b7160e01b600052602160045260246000fd5b60058110611ddc57634e487b7160e01b600052602160045260246000fd5b9052565b60a081526000611df360a0830188611c7a565b6020611e0181850189611dbe565b86604085015283820360608501528186518084528284019150828160051b85010183890160005b83811015611e5657601f19878403018552611e44838351611c7a565b94860194925090850190600101611e28565b50508681036080880152611e6a8189611c7a565b9c9b505050505050505050505050565b634e487b7160e01b600052604160045260246000fd5b604051601f8201601f1916810167ffffffffffffffff81118282101715611eb957611eb9611e7a565b604052919050565b600067ffffffffffffffff821115611edb57611edb611e7a565b5060051b60200190565b600082601f830112611ef657600080fd5b81356020611f0b611f0683611ec1565b611e90565b82815260059290921b84018101918181019086841115611f2a57600080fd5b8286015b84811015611f4e578035611f4181611cd2565b8352918301918301611f2e565b509695505050505050565b600067ffffffffffffffff831115611f7357611f73611e7a565b611f86601f8401601f1916602001611e90565b9050828152838383011115611f9a57600080fd5b828260208301376000602084830101529392505050565b600082601f830112611fc257600080fd5b611c4f83833560208501611f59565b600082601f830112611fe257600080fd5b81356020611ff2611f0683611ec1565b82815260059290921b8401810191818101908684111561201157600080fd5b8286015b84811015611f4e57803567ffffffffffffffff8111156120355760008081fd5b6120438986838b0101611fb1565b845250918301918301612015565b60008060008060008060c0878903121561206a57600080fd5b863567ffffffffffffffff8082111561208257600080fd5b61208e8a838b01611ee5565b975060208901359150808211156120a457600080fd5b6120b08a838b01611fb1565b96506120be60408a01611d64565b955060608901359150808211156120d457600080fd5b6120e08a838b01611fd1565b945060808901359150808211156120f657600080fd5b6121028a838b01611fb1565b935060a089013591508082111561211857600080fd5b5061212589828a01611fb1565b9150509295509295509295565b60008060008060008060c0878903121561214b57600080fd5b61215487611ce7565b9550602087013567ffffffffffffffff808211156120a457600080fd5b60a08152600061218460a0830188611c7a565b6121916020840188611dbe565b85604084015282810360608401526121a98186611c7a565b905082810360808401526121bd8185611c7a565b98975050505050505050565b6000602082840312156121db57600080fd5b8135611c4f81611cd2565b602081016103d18284611dbe565b6000806040838503121561220757600080fd5b823561221281611cd2565b91506020830135801515811461222757600080fd5b809150509250929050565b6000806000806080858703121561224857600080fd5b843561225381611cd2565b9350602085013561226381611cd2565b925060408501359150606085013567ffffffffffffffff81111561228657600080fd5b8501601f8101871361229757600080fd5b6122a687823560208401611f59565b91505092959194509250565b600080604083850312156122c557600080fd5b82356122d081611cd2565b9150602083013561222781611cd2565b6020808252825182820181905260009190848201906040850190845b81811015612318578351835292840192918401916001016122fc565b50909695505050505050565b600181811c9082168061233857607f821691505b60208210810361235857634e487b7160e01b600052602260045260246000fd5b50919050565b60006001820161237e57634e487b7160e01b600052601160045260246000fd5b5060010190565b634e487b7160e01b600052603260045260246000fd5b600083516123ad818460208801611c56565b8351908301906123c1818360208801611c56565b01949350505050565b601f82111561054c57600081815260208120601f850160051c810160208610156123f15750805b601f850160051c820191505b81811015611738578281556001016123fd565b815167ffffffffffffffff81111561242a5761242a611e7a565b61243e816124388454612324565b846123ca565b602080601f831160018114612473576000841561245b5750858301515b600019600386901b1c1916600185901b178555611738565b600085815260208120601f198616915b828110156124a257888601518255948401946001909101908401612483565b50858210156124c05787850151600019600388901b60f8161c191681555b5050505050600190811b01905550565b6124da8184611dbe565b604060208201526000611b576040830184611c7a565b60006020828403121561250257600080fd5b8151611c4f81611cd2565b6001600160a01b038581168252841660208201526040810183905260806060820181905260009061254090830184611c7a565b9695505050505050565b60006020828403121561255c57600080fd5b8151611c4f81611c1c56fea2646970667358221220d2e17452dad03f9b281416c8cb58316af04853514fc0108a5535733fae92aa4464736f6c63430008140033",
  "linkReferences": {},
  "deployedLinkReferences": {}
}